{
  "_format": "hh-sol-artifact-1",
  "contractName": "CourseMarket",
  "sourceName": "contracts/CourseMarket.sol",
  "abi": [
    {
      "inputs": [
        {
          "internalType": "address",
          "name": "_tokenAddress",
          "type": "address"
        },
        {
          "internalType": "address",
          "name": "_certificateAddress",
          "type": "address"
        }
      ],
      "stateMutability": "nonpayable",
      "type": "constructor"
    },
    {
      "anonymous": false,
      "inputs": [
        {
          "indexed": true,
          "internalType": "uint256",
          "name": "courseId",
          "type": "uint256"
        },
        {
          "indexed": false,
          "internalType": "string",
          "name": "web2CourseId",
          "type": "string"
        },
        {
          "indexed": false,
          "internalType": "string",
          "name": "name",
          "type": "string"
        }
      ],
      "name": "CourseAdded",
      "type": "event"
    },
    {
      "anonymous": false,
      "inputs": [
        {
          "indexed": true,
          "internalType": "address",
          "name": "student",
          "type": "address"
        },
        {
          "indexed": true,
          "internalType": "uint256",
          "name": "courseId",
          "type": "uint256"
        },
        {
          "indexed": false,
          "internalType": "uint256",
          "name": "certificateId",
          "type": "uint256"
        }
      ],
      "name": "CourseCompleted",
      "type": "event"
    },
    {
      "anonymous": false,
      "inputs": [
        {
          "indexed": true,
          "internalType": "address",
          "name": "buyer",
          "type": "address"
        },
        {
          "indexed": true,
          "internalType": "uint256",
          "name": "courseId",
          "type": "uint256"
        },
        {
          "indexed": false,
          "internalType": "string",
          "name": "web2CourseId",
          "type": "string"
        }
      ],
      "name": "CoursePurchased",
      "type": "event"
    },
    {
      "anonymous": false,
      "inputs": [
        {
          "indexed": true,
          "internalType": "address",
          "name": "previousOwner",
          "type": "address"
        },
        {
          "indexed": true,
          "internalType": "address",
          "name": "newOwner",
          "type": "address"
        }
      ],
      "name": "OwnershipTransferred",
      "type": "event"
    },
    {
      "inputs": [
        {
          "internalType": "string",
          "name": "web2CourseId",
          "type": "string"
        },
        {
          "internalType": "string",
          "name": "name",
          "type": "string"
        },
        {
          "internalType": "uint256",
          "name": "price",
          "type": "uint256"
        }
      ],
      "name": "addCourse",
      "outputs": [],
      "stateMutability": "nonpayable",
      "type": "function"
    },
    {
      "inputs": [
        {
          "internalType": "address[]",
          "name": "students",
          "type": "address[]"
        },
        {
          "internalType": "string",
          "name": "web2CourseId",
          "type": "string"
        }
      ],
      "name": "batchVerifyCourseCompletion",
      "outputs": [],
      "stateMutability": "nonpayable",
      "type": "function"
    },
    {
      "inputs": [],
      "name": "certificate",
      "outputs": [
        {
          "internalType": "contract CourseCertificate",
          "name": "",
          "type": "address"
        }
      ],
      "stateMutability": "view",
      "type": "function"
    },
    {
      "inputs": [],
      "name": "courseCount",
      "outputs": [
        {
          "internalType": "uint256",
          "name": "",
          "type": "uint256"
        }
      ],
      "stateMutability": "view",
      "type": "function"
    },
    {
      "inputs": [
        {
          "internalType": "uint256",
          "name": "",
          "type": "uint256"
        }
      ],
      "name": "courses",
      "outputs": [
        {
          "internalType": "string",
          "name": "web2CourseId",
          "type": "string"
        },
        {
          "internalType": "string",
          "name": "name",
          "type": "string"
        },
        {
          "internalType": "uint256",
          "name": "price",
          "type": "uint256"
        },
        {
          "internalType": "bool",
          "name": "isActive",
          "type": "bool"
        },
        {
          "internalType": "address",
          "name": "creator",
          "type": "address"
        }
      ],
      "stateMutability": "view",
      "type": "function"
    },
    {
      "inputs": [
        {
          "internalType": "address",
          "name": "user",
          "type": "address"
        },
        {
          "internalType": "string",
          "name": "web2CourseId",
          "type": "string"
        }
      ],
      "name": "hasCourse",
      "outputs": [
        {
          "internalType": "bool",
          "name": "",
          "type": "bool"
        }
      ],
      "stateMutability": "view",
      "type": "function"
    },
    {
      "inputs": [],
      "name": "owner",
      "outputs": [
        {
          "internalType": "address",
          "name": "",
          "type": "address"
        }
      ],
      "stateMutability": "view",
      "type": "function"
    },
    {
      "inputs": [
        {
          "internalType": "string",
          "name": "web2CourseId",
          "type": "string"
        }
      ],
      "name": "purchaseCourse",
      "outputs": [],
      "stateMutability": "nonpayable",
      "type": "function"
    },
    {
      "inputs": [],
      "name": "renounceOwnership",
      "outputs": [],
      "stateMutability": "nonpayable",
      "type": "function"
    },
    {
      "inputs": [
        {
          "internalType": "address",
          "name": "newOwner",
          "type": "address"
        }
      ],
      "name": "transferOwnership",
      "outputs": [],
      "stateMutability": "nonpayable",
      "type": "function"
    },
    {
      "inputs": [
        {
          "internalType": "address",
          "name": "",
          "type": "address"
        },
        {
          "internalType": "uint256",
          "name": "",
          "type": "uint256"
        }
      ],
      "name": "userCourses",
      "outputs": [
        {
          "internalType": "bool",
          "name": "",
          "type": "bool"
        }
      ],
      "stateMutability": "view",
      "type": "function"
    },
    {
      "inputs": [
        {
          "internalType": "address",
          "name": "student",
          "type": "address"
        },
        {
          "internalType": "string",
          "name": "web2CourseId",
          "type": "string"
        }
      ],
      "name": "verifyCourseCompletion",
      "outputs": [],
      "stateMutability": "nonpayable",
      "type": "function"
    },
    {
      "inputs": [
        {
          "internalType": "string",
          "name": "",
          "type": "string"
        }
      ],
      "name": "web2ToCourseId",
      "outputs": [
        {
          "internalType": "uint256",
          "name": "",
          "type": "uint256"
        }
      ],
      "stateMutability": "view",
      "type": "function"
    },
    {
      "inputs": [],
      "name": "yiDengToken",
      "outputs": [
        {
          "internalType": "contract YiDengToken",
          "name": "",
          "type": "address"
        }
      ],
      "stateMutability": "view",
      "type": "function"
    }
  ],
  "bytecode": "0x608060405234801561001057600080fd5b506040516119af3803806119af83398101604081905261002f916100d5565b61003833610069565b600180546001600160a01b039384166001600160a01b03199182161790915560028054929093169116179055610108565b600080546001600160a01b038381166001600160a01b0319831681178455604051919092169283917f8be0079c531659141344cd1fd0a4f28419497f9722a3daafe3b4186f6b6457e09190a35050565b80516001600160a01b03811681146100d057600080fd5b919050565b600080604083850312156100e857600080fd5b6100f1836100b9565b91506100ff602084016100b9565b90509250929050565b611898806101176000396000f3fe608060405234801561001057600080fd5b50600436106100ea5760003560e01c806393a05c201161008c578063b62644cd11610066578063b62644cd14610217578063dd403ce11461022a578063f24fa63a1461023d578063f2fde38b1461025057600080fd5b806393a05c201461018a57806396f979d2146101c85780639b84006e146101ec57600080fd5b806366055159116100c8578063660551591461014757806367589b6f1461015e578063715018a6146101715780638da5cb5b1461017957600080fd5b80630262232b146100ef5780632dbf7b981461011f57806344a8ef1914610132575b600080fd5b600154610102906001600160a01b031681565b6040516001600160a01b0390911681526020015b60405180910390f35b600254610102906001600160a01b031681565b610145610140366004611219565b610263565b005b61015060065481565b604051908152602001610116565b61014561016c36600461128c565b610451565b6101456107cc565b6000546001600160a01b0316610102565b6101b86101983660046112e5565b600560209081526000928352604080842090915290825290205460ff1681565b6040519015158152602001610116565b6101db6101d636600461130f565b6107e0565b604051610116959493929190611378565b6101506101fa36600461128c565b805160208183018101805160048252928201919093012091525481565b6101456102253660046113c4565b61092b565b6101b86102383660046114a5565b610b99565b61014561024b3660046114a5565b610c0c565b61014561025e3660046114dd565b610e57565b61026b610ed0565b60008351116102c15760405162461bcd60e51b815260206004820152601e60248201527f5765623220636f757273652049442063616e6e6f7420626520656d707479000060448201526064015b60405180910390fd5b6004836040516102d191906114f8565b9081526020016040518091039020546000146103275760405162461bcd60e51b8152602060048201526015602482015274436f7572736520616c72656164792065786973747360581b60448201526064016102b8565b600680549060006103378361152a565b90915550506040805160a08101825284815260208082018590528183018490526001606083015233608083015260065460009081526003909152919091208151819061038390826115cc565b506020820151600182019061039890826115cc565b5060408281015160028301556060830151600390920180546080909401516001600160a01b031661010002610100600160a81b0319931515939093166001600160a81b0319909416939093179190911790915560065490516004906103fe9086906114f8565b9081526020016040518091039020819055506006547f60dc19c8b14fd3a7f20dd113bdacc08bd8cdbfc6d28dcf1169272fc32eaef6c3848460405161044492919061168b565b60405180910390a2505050565b600060048260405161046391906114f8565b9081526020016040518091039020549050600081116104945760405162461bcd60e51b81526004016102b8906116b9565b600081815260036020526040808220815160a081019092528054829082906104bb90611543565b80601f01602080910402602001604051908101604052809291908181526020018280546104e790611543565b80156105345780601f1061050957610100808354040283529160200191610534565b820191906000526020600020905b81548152906001019060200180831161051757829003601f168201915b5050505050815260200160018201805461054d90611543565b80601f016020809104026020016040519081016040528092919081815260200182805461057990611543565b80156105c65780601f1061059b576101008083540402835291602001916105c6565b820191906000526020600020905b8154815290600101906020018083116105a957829003601f168201915b50505091835250506002820154602082015260039091015460ff81161515604083015261010090046001600160a01b03166060918201528101519091506106435760405162461bcd60e51b8152602060048201526011602482015270436f75727365206e6f742061637469766560781b60448201526064016102b8565b33600090815260056020908152604080832085845290915290205460ff16156106a25760405162461bcd60e51b8152602060048201526011602482015270105b1c9958591e481c1d5c98da185cd959607a1b60448201526064016102b8565b600154608082015160408084015190516323b872dd60e01b81523360048201526001600160a01b03928316602482015260448101919091529116906323b872dd906064016020604051808303816000875af1158015610705573d6000803e3d6000fd5b505050506040513d601f19601f8201168201806040525081019061072991906116e8565b6107675760405162461bcd60e51b815260206004820152600f60248201526e151c985b9cd9995c8819985a5b1959608a1b60448201526064016102b8565b33600081815260056020908152604080832086845290915290819020805460ff19166001179055518391907f1a04f8d389f43beccf2cc32092c53cb34d57ec70fd68693db2bfe79336db783c906107bf90879061170a565b60405180910390a3505050565b6107d4610ed0565b6107de6000610f2a565b565b6003602052600090815260409020805481906107fb90611543565b80601f016020809104026020016040519081016040528092919081815260200182805461082790611543565b80156108745780601f1061084957610100808354040283529160200191610874565b820191906000526020600020905b81548152906001019060200180831161085757829003601f168201915b50505050509080600101805461088990611543565b80601f01602080910402602001604051908101604052809291908181526020018280546108b590611543565b80156109025780601f106108d757610100808354040283529160200191610902565b820191906000526020600020905b8154815290600101906020018083116108e557829003601f168201915b50505050600283015460039093015491929160ff8116915061010090046001600160a01b031685565b610933610ed0565b600060048260405161094591906114f8565b9081526020016040518091039020549050600081116109765760405162461bcd60e51b81526004016102b8906116b9565b60005b8351811015610b9357600560008583815181106109985761099861171d565b6020908102919091018101516001600160a01b03168252818101929092526040908101600090812085825290925290205460ff168015610a65575060025484516001600160a01b0390911690633c433ebe908690849081106109fc576109fc61171d565b6020026020010151856040518363ffffffff1660e01b8152600401610a22929190611733565b602060405180830381865afa158015610a3f573d6000803e3d6000fd5b505050506040513d601f19601f82011682018060405250810190610a6391906116e8565b155b15610b8b576000610a8f858381518110610a8157610a8161171d565b602002602001015185610f7a565b60025486519192506000916001600160a01b0390911690636b55243d90889086908110610abe57610abe61171d565b602002602001015187856040518463ffffffff1660e01b8152600401610ae693929190611757565b6020604051808303816000875af1158015610b05573d6000803e3d6000fd5b505050506040513d601f19601f82011682018060405250810190610b299190611797565b905083868481518110610b3e57610b3e61171d565b60200260200101516001600160a01b03167f69598479254610bc37273ec300171cd231505beb1ee68d360cbd78c1bd81827883604051610b8091815260200190565b60405180910390a350505b600101610979565b50505050565b600080600483604051610bac91906114f8565b908152602001604051809103902054905060008111610bdd5760405162461bcd60e51b81526004016102b8906116b9565b6001600160a01b0384166000908152600560209081526040808320938352929052205460ff1690505b92915050565b610c14610ed0565b6000600482604051610c2691906114f8565b908152602001604051809103902054905060008111610c575760405162461bcd60e51b81526004016102b8906116b9565b6001600160a01b038316600090815260056020908152604080832084845290915290205460ff16610cc15760405162461bcd60e51b815260206004820152601460248201527310dbdd5c9cd9481b9bdd081c1d5c98da185cd95960621b60448201526064016102b8565b600254604051631e219f5f60e11b81526001600160a01b0390911690633c433ebe90610cf39086908690600401611733565b602060405180830381865afa158015610d10573d6000803e3d6000fd5b505050506040513d601f19601f82011682018060405250810190610d3491906116e8565b15610d815760405162461bcd60e51b815260206004820152601a60248201527f436572746966696361746520616c72656164792069737375656400000000000060448201526064016102b8565b6000610d8d8484610f7a565b600254604051636b55243d60e01b81529192506000916001600160a01b0390911690636b55243d90610dc790889088908790600401611757565b6020604051808303816000875af1158015610de6573d6000803e3d6000fd5b505050506040513d601f19601f82011682018060405250810190610e0a9190611797565b905082856001600160a01b03167f69598479254610bc37273ec300171cd231505beb1ee68d360cbd78c1bd81827883604051610e4891815260200190565b60405180910390a35050505050565b610e5f610ed0565b6001600160a01b038116610ec45760405162461bcd60e51b815260206004820152602660248201527f4f776e61626c653a206e6577206f776e657220697320746865207a65726f206160448201526564647265737360d01b60648201526084016102b8565b610ecd81610f2a565b50565b6000546001600160a01b031633146107de5760405162461bcd60e51b815260206004820181905260248201527f4f776e61626c653a2063616c6c6572206973206e6f7420746865206f776e657260448201526064016102b8565b600080546001600160a01b038381166001600160a01b0319831681178455604051919092169283917f8be0079c531659141344cd1fd0a4f28419497f9722a3daafe3b4186f6b6457e09190a35050565b606081610f8684610fae565b604051602001610f979291906117b0565b604051602081830303815290604052905092915050565b6060610c066001600160a01b038316601460606000610fce836002611821565b610fd9906002611838565b67ffffffffffffffff811115610ff157610ff1611162565b6040519080825280601f01601f19166020018201604052801561101b576020820181803683370190505b509050600360fc1b816000815181106110365761103661171d565b60200101906001600160f81b031916908160001a905350600f60fb1b816001815181106110655761106561171d565b60200101906001600160f81b031916908160001a9053506000611089846002611821565b611094906001611838565b90505b600181111561110c576f181899199a1a9b1b9c1cb0b131b232b360811b85600f16601081106110c8576110c861171d565b1a60f81b8282815181106110de576110de61171d565b60200101906001600160f81b031916908160001a90535060049490941c936111058161184b565b9050611097565b50831561115b5760405162461bcd60e51b815260206004820181905260248201527f537472696e67733a20686578206c656e67746820696e73756666696369656e7460448201526064016102b8565b9392505050565b634e487b7160e01b600052604160045260246000fd5b604051601f8201601f1916810167ffffffffffffffff811182821017156111a1576111a1611162565b604052919050565b600082601f8301126111ba57600080fd5b813567ffffffffffffffff8111156111d4576111d4611162565b6111e7601f8201601f1916602001611178565b8181528460208386010111156111fc57600080fd5b816020850160208301376000918101602001919091529392505050565b60008060006060848603121561122e57600080fd5b833567ffffffffffffffff81111561124557600080fd5b611251868287016111a9565b935050602084013567ffffffffffffffff81111561126e57600080fd5b61127a868287016111a9565b93969395505050506040919091013590565b60006020828403121561129e57600080fd5b813567ffffffffffffffff8111156112b557600080fd5b6112c1848285016111a9565b949350505050565b80356001600160a01b03811681146112e057600080fd5b919050565b600080604083850312156112f857600080fd5b611301836112c9565b946020939093013593505050565b60006020828403121561132157600080fd5b5035919050565b60005b8381101561134357818101518382015260200161132b565b50506000910152565b60008151808452611364816020860160208601611328565b601f01601f19169290920160200192915050565b60a08152600061138b60a083018861134c565b828103602084015261139d818861134c565b6040840196909652505091151560608301526001600160a01b031660809091015292915050565b600080604083850312156113d757600080fd5b823567ffffffffffffffff8111156113ee57600080fd5b8301601f810185136113ff57600080fd5b803567ffffffffffffffff81111561141957611419611162565b8060051b61142960208201611178565b9182526020818401810192908101908884111561144557600080fd5b6020850194505b8385101561146e5761145d856112c9565b82526020948501949091019061144c565b95505050506020840135905067ffffffffffffffff81111561148f57600080fd5b61149b858286016111a9565b9150509250929050565b600080604083850312156114b857600080fd5b6114c1836112c9565b9150602083013567ffffffffffffffff81111561148f57600080fd5b6000602082840312156114ef57600080fd5b61115b826112c9565b6000825161150a818460208701611328565b9190910192915050565b634e487b7160e01b600052601160045260246000fd5b60006001820161153c5761153c611514565b5060010190565b600181811c9082168061155757607f821691505b60208210810361157757634e487b7160e01b600052602260045260246000fd5b50919050565b601f8211156115c757806000526020600020601f840160051c810160208510156115a45750805b601f840160051c820191505b818110156115c457600081556001016115b0565b50505b505050565b815167ffffffffffffffff8111156115e6576115e6611162565b6115fa816115f48454611543565b8461157d565b6020601f82116001811461162e57600083156116165750848201515b600019600385901b1c1916600184901b1784556115c4565b600084815260208120601f198516915b8281101561165e578785015182556020948501946001909201910161163e565b508482101561167c5786840151600019600387901b60f8161c191681555b50505050600190811b01905550565b60408152600061169e604083018561134c565b82810360208401526116b0818561134c565b95945050505050565b60208082526015908201527410dbdd5c9cd948191bd95cc81b9bdd08195e1a5cdd605a1b604082015260600190565b6000602082840312156116fa57600080fd5b8151801515811461115b57600080fd5b60208152600061115b602083018461134c565b634e487b7160e01b600052603260045260246000fd5b6001600160a01b03831681526040602082018190526000906112c19083018461134c565b6001600160a01b038416815260606020820181905260009061177b9083018561134c565b828103604084015261178d818561134c565b9695505050505050565b6000602082840312156117a957600080fd5b5051919050565b7f68747470733a2f2f6170692e796964656e672e636f6d2f63657274696669636181526274652f60e81b6020820152600083516117f4816023850160208801611328565b602f60f81b6023918401918201528351611815816024840160208801611328565b01602401949350505050565b8082028115828204841417610c0657610c06611514565b80820180821115610c0657610c06611514565b60008161185a5761185a611514565b50600019019056fea26469706673582212200673c5a58f6460bb5610275811b042e7655b8432b959ba9aed91336a3783748c64736f6c634300081c0033",
  "linkReferences": {},
  "deployedLinkReferences": {}
}